:100000000C9434000C9449000C9449000C94490061
:100010000C9449000C9449000C9449000C9449003C
:100020000C9449000C9449000C9449000C9449002C
:100030000C9449000C9449000C9449000C9449001C
:100040000C9449000C9449000C9449000C9449000C
:100050000C9449000C9449000C9449000C944900FC
:100060000C9449000C94490011241FBECFEFD8E036
:10007000DEBFCDBF11E0A0E0B1E0E8E3F3E002C0F5
:1000800005900D92A231B107D9F70E947D010C9421
:100090009A010C9400001F93CF93DF93182FD62F53
:1000A000C42F0E942301812F0E9418018D2F0E94CE
:1000B00018018C2F0E9418010E942C018FE39CE9EB
:1000C0000197F1F700C00000DF91CF911F910895D3
:1000D000CF93DF93C82FD62F0E9423018C2F0E942D
:1000E00018018D2F0E9418010E9423018C2F81601E
:1000F0000E9418010E940D01C82F0E942C018C2F14
:10010000DF91CF910895CF938EEF0E94390180E85F
:100110000E94390180E091E00E94480162E080ED98
:100120000E946800C82F82958F70805D0E943901FF
:100130008C2F8F70805D0E9439018DE20E94390101
:1001400061E080ED0E946800C82F82958F70805D0D
:100150000E9439018C2F8F70805D0E9439018DE2E1
:100160000E94390160E080ED0E946800C82F8295EE
:100170008F70805D0E9439018C2F8F70805D0E948E
:1001800039018EEF0E94390180EC0E94390187E02D
:1001900091E00E94480164E080ED0E946800C82F51
:1001A00082958F70805D0E9439018C2F8F70805DE9
:1001B0000E9439018DE20E94390165E080ED0E94C4
:1001C0006800C82F82958F70805D0E9439018C2F46
:1001D0008F70805D0E9439018DE20E94390166E0D6
:1001E00080ED0E946800C82F82958F70805D0E940C
:1001F00039018C2F8F70805D0E9439018EE091E073
:100200000E944801CF9108951092B90087E480932D
:10021000B80084E08093BC00089584E88093BC001B
:10022000ECEBF0E080818823ECF78091BB0008952F
:100230008093BB0084EC8093BC00ECEBF0E0808109
:100240008823ECF7089584EA8093BC00ECEBF0E09F
:1002500080818823ECF7089584E98093BC002FEF18
:1002600080E792E0215080409040E1F700C000001C
:100270000895E0ECF0E0908195FFFDCF8093C600FB
:10028000089588E18093C10083E38093C4000895BA
:10029000CF93DF93EC018881882361F021960E943F
:1002A00039018FE99FE00197F1F700C000008991C3
:1002B0008111F5CFDF91CF91089540E060E080EDAE
:1002C0000E944B0049E561E080ED0E944B0043E253
:1002D00062E080ED0E944B00089548E064E080ED0C
:1002E0000E944B0049E065E080ED0E944B0045E133
:1002F00066E080ED0E944B0008950E9404010E9478
:1003000041010E945D010E946D012FEF83ED90E39A
:10031000215080409040E1F700C000000E9483001F
:100320002FEF83ED90E3215080409040E1F700C033
:080330000000F4CFF894FFCFA8
:1003380054696D653A2000446174653A20000D0ADD
:020348000000B3
:0400000300000246B1
:00000001FF
