:100000000C9434000C9451000C9451000C94510049
:100010000C9451000C9451000C9451000C9451001C
:100020000C9451000C9451000C9451000C9451000C
:100030000C9451000C9451000C9451000C945100FC
:100040000C9451000C9451000C9490000C945100AD
:100050000C9451000C9451000C9451000C945100DC
:100060000C9451000C94510011241FBECFEFD8E026
:10007000DEBFCDBF11E0A0E0B1E0ECEBF7E002C0E5
:1000800005900D92AC31B107D9F721E0ACE1B1E0B8
:1000900001C01D92A432B207E1F70E94A7000C94A0
:1000A000DC030C94000083E084B985B1836085B9DA
:1000B000089528982FEF89E698E1215080409040DC
:1000C000E1F700C00000289A089529982FEF89E6EB
:1000D00098E1215080409040E1F700C00000299A4B
:1000E0000895F8949093C5008093C400E1ECF0E08B
:1000F000108288E98083789408959091C00095FFDC
:1001000004C08093C60081E0089580E00895CF93F5
:10011000C82F8C2F0E947D008130D9F7CF91089590
:100120001F920F920FB60F9211248F938091C000EF
:1001300088233CF48091C60080931D0181E0809368
:100140001C018F910F900FBE0F901F901895CF93A9
:10015000DF93CDB7DEB72F970FB6F894DEBF0FBE93
:10016000CDBF8DE0E0E0F1E0DE01119601900D924F
:100170008A95E1F71F861E8687E690E00E9471004F
:100180000E94530061E687E190E00E94F10287E15E
:1001900090E00E94E902E82EF12C0FE011E00CC083
:1001A0000E9487002FE788E391E021508040904033
:1001B000E1F700C00000F394E1E0F0E0EC0FFD1F78
:1001C000EF0DF11D80818111EBCF90911C019923DE
:1001D000E1F310921C0190911D019E110FC01F921E
:1001E000EF921F930F930E9403018FE00E9465001E
:1001F0000F900F900F900F90F12CDECF8FE00E94A8
:100200005900F12CD9CFA0E0B0E0E9E0F1E00C9486
:10021000B503FE01359661917191AF018091200186
:10022000909121010E941701E2E00C94D103ACE00F
:10023000B0E0EDE1F1E00C94A5037C016B018A01D3
:10024000FC0117821682838181FFBDC1CE01019618
:100250004C01F7019381F60193FD859193FF819104
:100260006F01882309F4ABC1853239F493FD859180
:1002700093FF81916F01853229F4B70190E00E94CC
:100280001503E7CF512C312C20E02032A0F48B3223
:1002900069F030F4803259F0833269F420612CC067
:1002A0008D3239F0803339F4216026C02260246019
:1002B00023C0286021C027FD27C030ED380F3A3019
:1002C00078F426FF06C0FAE05F9E300D1124532E0D
:1002D00013C08AE0389E300D1124332E20620CC0EA
:1002E0008E3221F426FD6BC1206406C08C3611F4D9
:1002F000206802C0883641F4F60193FD859193FF92
:1003000081916F018111C1CF982F9F7D95549330BA
:1003100028F40C5F1F4FFFE3F9830DC0833631F0E3
:10032000833771F0833509F05BC022C0F80180810A
:1003300089830E5F1F4F44244394512C540115C0F0
:100340003801F2E06F0E711CF801A080B18026FF29
:1003500003C0652D70E002C06FEF7FEFC5012C87F1
:100360000E940A032C0183012C852F77222E17C0AF
:100370003801F2E06F0E711CF801A080B18026FFF9
:1003800003C0652D70E002C06FEF7FEFC5012C87C1
:100390000E94FF022C012C852068222E830123FC61
:1003A0001BC0832D90E048165906B0F4B70180E2D7
:1003B00090E00E9415033A94F4CFF50127FC859153
:1003C00027FE81915F01B70190E00E941503311073
:1003D0003A94F1E04F1A51084114510471F7E5C005
:1003E000843611F0893639F5F80127FF07C060819E
:1003F0007181828193810C5F1F4F08C06081718180
:10040000882777FD8095982F0E5F1F4F2F76B22E8D
:1004100097FF09C090958095709561957F4F8F4F9C
:100420009F4F2068B22E2AE030E0A4010E944703CB
:10043000A82EA81844C0853729F42F7EB22E2AE0B2
:1004400030E025C0F22FF97FBF2E8F36C1F018F4AF
:10045000883579F0B4C0803719F0883721F0AFC003
:100460002F2F2061B22EB4FE0DC08B2D8460B82ECC
:1004700009C024FF0AC09F2F9660B92E06C028E04D
:1004800030E005C020E130E002C020E132E0F801B8
:10049000B7FE07C060817181828193810C5F1F4F1D
:1004A00006C06081718180E090E00E5F1F4FA40163
:1004B0000E944703A82EA818FB2DFF77BF2EB6FE7B
:1004C0000BC02B2D2E7FA51450F4B4FE0AC0B2FC35
:1004D00008C02B2D2E7E05C07A2C2B2D03C07A2C24
:1004E00001C0752C24FF0DC0FE01EA0DF11D8081B5
:1004F000803311F4297E09C022FF06C073947394DF
:1005000004C0822F867809F0739423FD13C020FF66
:1005100006C05A2C731418F4530C5718732C731408
:1005200068F4B70180E290E02C870E941503739471
:100530002C85F5CF731410F4371801C0312C24FF2B
:1005400012C0B70180E390E02C870E9415032C8530
:1005500022FF17C021FF03C088E590E002C088E7B2
:1005600090E0B7010CC0822F867859F021FD02C0BF
:1005700080E201C08BE227FD8DE2B70190E00E948E
:100580001503A51438F4B70180E390E00E94150329
:100590005A94F7CFAA94F401EA0DF11D8081B701B6
:1005A00090E00E941503A110F5CF332009F451CE3D
:1005B000B70180E290E00E9415033A94F6CFF7016C
:1005C0008681978102C08FEF9FEF2C96E2E10C9419
:1005D000C103F999FECF92BD81BDF89A992780B5E4
:1005E0000895262FF999FECF1FBA92BD81BD20BD77
:1005F0000FB6F894FA9AF99A0FBE01960895FC0185
:100600000590615070400110D8F7809590958E0F3D
:100610009F1F0895FC016150704001900110D8F7B0
:10062000809590958E0F9F1F08950F931F93CF93E2
:10063000DF93182F092FEB018B8181FD03C08FEF12
:100640009FEF20C082FF10C04E815F812C813D81D1
:10065000421753077CF4E881F9819F012F5F3F4FD8
:1006600039832883108306C0E885F985812F099591
:10067000892B29F72E813F812F5F3F4F3F832E83A8
:10068000812F902FDF91CF911F910F910895FA0143
:10069000AA27283051F1203181F1E8946F936E7FC1
:1006A0006E5F7F4F8F4F9F4FAF4FB1E03ED0B4E0B2
:1006B0003CD0670F781F891F9A1FA11D680F791FF3
:1006C0008A1F911DA11D6A0F711D811D911DA11D04
:1006D00020D009F468943F912AE0269F1124301914
:1006E000305D3193DEF6CF010895462F4770405DAF
:1006F0004193B3E00FD0C9F7F6CF462F4F70405D5E
:100700004A3318F0495D31FD4052419302D0A9F7B8
:10071000EACFB4E0A6959795879577956795BA95B2
:10072000C9F700976105710508959B01AC010A2E78
:1007300006945795479537952795BA95C9F7620F4F
:10074000731F841F951FA01D08952F923F924F92F3
:100750005F926F927F928F929F92AF92BF92CF9251
:10076000DF92EF92FF920F931F93CF93DF93CDB75A
:10077000DEB7CA1BDB0B0FB6F894DEBF0FBECDBFD2
:1007800009942A88398848885F846E847D848C84A3
:100790009B84AA84B984C884DF80EE80FD800C81AC
:1007A0001B81AA81B981CE0FD11D0FB6F894DEBF8F
:0C07B0000FBECDBFED010895F894FFCFFF
:1007BC000D0A70617373776F72643A0000000072F7
:0C07CC00656164627974653D256400007D
:00000001FF
