S00B00007274632E73726563D0
S11300000C9434000C9451000C9451000C94510045
S11300100C9451000C9451000C9451000C94510018
S11300200C9451000C9451000C9451000C94510008
S11300300C9451000C9451000C9451000C945100F8
S11300400C9451000C9451000C9464010C945100D4
S11300500C9451000C9451000C9451000C945100D8
S11300600C9451000C94510011241FBECFEFD8E022
S1130070DEBFCDBF11E0A0E0B1E0E4ECF4E002C0EB
S113008005900D92A235B107D9F721E0A2E5B1E0C0
S113009001C01D92A435B207E1F70E9443020C94FB
S11300A060020C9400001F93CF93DF93182FD62F78
S11300B0C42F0E942901812F0E941E018D2F0E94AE
S11300C01E018C2F0E941E010E9432018FE39CE9C5
S11300D00197F1F700C00000DF91CF911F910895BF
S11300E0CF93DF93C82FD62F0E9429018C2F0E9413
S11300F01E018D2F0E941E010E9429018C2F8160F8
S11301000E941E010E941301C82F0E9432018C2FED
S1130110DF91CF910895CF938EEF0E943F0180E845
S11301200E943F0180E091E00E944F0162E080ED77
S11301300E947000C82F82958F70805D0E943F01DD
S11301408C2F8F70805D0E943F018DE20E943F01E1
S113015061E080ED0E947000C82F82958F70805DF1
S11301600E943F018C2F8F70805D0E943F018DE2C1
S11301700E943F0160E080ED0E947000C82F8295CC
S11301808F70805D0E943F018C2F8F70805D0E9474
S11301903F0187E091E00E944F0189E091E00E94D5
S11301A04F0164E080ED0E947000C82F82958F702B
S11301B0805D0E943F018C2F8F70805D0E943F0103
S11301C08DE20E943F0165E080ED0E947000C82F1F
S11301D082958F70805D0E943F018C2F8F70805DAF
S11301E00E943F018DE20E943F0166E080ED0E9483
S11301F07000C82F82958F70805D0E943F018C2F04
S11302008F70805D0E943F0180E191E00E944F0168
S1130210CF9108951092B90087E48093B80084E0E8
S11302208093BC00089584E88093BC00ECEBF0E07C
S113023080818823ECF78091BB0008958093BB00F4
S113024084EC8093BC00ECEBF0E080818823ECF735
S1130250089584EA8093BC00ECEBF0E0808188236D
S1130260ECF7089584E98093BC002FEF80E792E0D7
S1130270215080409040E1F700C000000895E0EC78
S1130280F0E0908195FFFDCF8093C600089588E942
S11302908093C10083E38093C40078940895CF933E
S11302A0DF93EC018881882361F021960E943F014D
S11302B08FE99FE00197F1F700C000008991811157
S11302C0F5CFDF91CF9108951F920F920FB60F9241
S11302D011248F938091C00088233CF48091C60040
S11302E08093530181E0809352018F910F900FBE50
S11302F00F901F901895DC01809152018823E1F33F
S113030010925201809153018C938D3089F090E0CA
S1130310809152018823E1F3109252019F5FFD0105
S1130320E90FF11D8091530180838D3089F701C05D
S1130330FD01108211968C911197882301F19C91F3
S1130340943331F4806480538C9311961C920895F5
S1130350933329F480638C9311961C9208959233FD
S113036031F4806280518C9311961C920895929579
S1130370907F892B80528C9311961C9208958C91B6
S113038080538C9311961C920895CF93DF9300D0E1
S11303901F92CDB7DEB783E191E00E944F01CE01F9
S11303A001960E947B0180E191E00E944F018DE162
S11303B091E00E944F01CE0102960E947B0180E1F0
S11303C091E00E944F0187E291E00E944F01CE012B
S11303D003960E947B0180E191E00E944F014B81D2
S11303E060E080ED0E9453004A8161E080ED0E944C
S11303F05300498162E080ED0E9453000F900F90FA
S11304000F90DF91CF910895CF93DF9300D01F9287
S1130410CDB7DEB781E391E00E944F01CE01019692
S11304200E947B0180E191E00E944F018CE391E006
S11304300E944F01CE0102960E947B0180E191E06F
S11304400E944F0188E491E00E944F01CE0103967F
S11304500E947B0180E191E00E944F01498164E0A8
S113046080ED0E9453004A8165E080ED0E945300B4
S11304704B8166E080ED0E9453000F900F900F9027
S1130480DF91CF9108950E940A010E9447010E94C2
S1130490C5010E9404022FEF83ED90E321508040B8
S11304A09040E1F700C000000E948B002FEF83E230
S11304B094EF215080409040E1F700C00000F4CF59
S10704C0F894FFCFDA
S11304C454696D653A20000900446174653A20005A
S11304D40D0A0020736574206872733A00207365F2
S11304E474206D696E3A0020736574207365633AF1
S11304F4002073657420646174653A002073657424
S1130504206D6F6E74683A00207365742079723AB2
S10505140000E1
S9030252A8
