S0120000756172745F6C6F67696E2E73726563DE
S11300000C9434000C9451000C9451000C94510045
S11300100C9451000C9451000C9451000C94510018
S11300200C9451000C9451000C9451000C94510008
S11300300C9451000C9451000C9451000C945100F8
S11300400C9451000C9451000C9490000C945100A9
S11300500C9451000C9451000C9451000C945100D8
S11300600C9451000C94510011241FBECFEFD8E022
S1130070DEBFCDBF11E0A0E0B1E0E2EAF3E002C0F0
S113008005900D92A036B107D9F721E0A0E6B1E0C2
S113009001C01D92A538B207E1F70E9414010C9427
S11300A0CF010C94000083E084B985B1836085B9E5
S11300B0089528982FEF89E698E1215080409040D8
S11300C0E1F700C00000289A089529982FEF89E6E7
S11300D098E1215080409040E1F700C00000299A47
S11300E00895F8949093C5008093C400E1ECF0E087
S11300F0108288E98083789408959091C00095FFD8
S113010004C08093C60081E0089580E00895CF93F1
S1130110C82F8C2F0E947D008130D9F7CF9108958C
S11301201F920F920FB60F9211248F938091C000EB
S113013088233CF48091C6008093610181E0809320
S113014060018F910F900FBE0F901F9018951F9311
S1130150CF93DF93EC018881882399F010E00E940B
S113016087002FE788E391E0215080409040E1F739
S113017000C000001F5FFE01E10FF11D80818111AD
S1130180EECFDF91CF911F9108952091600122233A
S1130190E1F31092600120916101FC0120832D3074
S11301A089F030E0209160012223E1F31092600194
S11301B03F5FFC01E30FF11D2091610120832D308D
S11301C089F701C0FC0110820895CF93DF93CDB766
S11301D0DEB72F970FB6F894DEBF0FBECDBF8EE10A
S11301E091E00E94A700CE0101960E94C50087E419
S11301F091E00E94A7004AE050E067E170E0CE0180
S113020001960E9495014AE050E067E170E086E7BC
S113021091E00E9485012F960FB6F894DEBF0FBEC1
S1130220CDBFDF91CF910895CF93DF93CDB7DEB7E4
S1130230A3970FB6F894DEBF0FBECDBF8DE0EFE0FD
S1130240F1E0DE01559601900D928A95E1F71BA22B
S11302501AA287E690E00E9471000E9453004AE0CF
S113026050E067E170E080E091E00E94B7014AE06D
S113027050E067E170E086E791E00E94850110920A
S11302807F01CE0145960E94A700CE0101960E94EF
S1130290C50087E491E00E94A70066E771E0CE0103
S11302A001960E947C01892B01F586E291E00E946F
S11302B0A7000E94650087E391E00E94A700CE0199
S11302C040960E94C50087E491E00E94A7006AE47A
S11302D071E0CE0140960E947C01892B19F40E94A2
S11302E0E500CFCF0E946500CCCF8EE491E00E9460
S11302F0A7000E945900C5CFFB01DC018D9101903C
S113030080190110D9F3990B0895DC01CB01FC018C
S1130310F999FECF06C0F2BDE1BDF89A319600B45A
S11303200D9241505040B8F70895DC01A40FB51F59
S11303304150504048F0CB01840F951F2E910E94EC
S1130340A60141505040D0F70895262FF999FECFC9
S113035092BD81BDF89A019700B4021639F01FBA14
S113036020BD0FB6F894FA9AF99A0FBE0895DC01ED
S1130370CB0103C02D910E94C20141505040D0F7DF
S11303800895262FF999FECF1FBA92BD81BD20BDD5
S11303900FB6F894FA9AF99A0FBE01960895F89454
S10503A0FFCF89
S11303A270617373776F7264310000000000000D96
S11303B20A70617373776F72643A000000006E65AD
S11303C2772070773A0061636365737320677261A3
S11303D26E7465640D0A006368616E6765207061FE
S11303E27373776F72643F0D0A00796573006163FA
S11303F263657373732064656E6965640D0A000036
S9030000FC
